:020000020000FC
:100000000C9485030C94F6000C94F6000C94F60006
:100010000C94F6000C94F6000C94F6000C94F60088
:100020000C94F6000C94F6000C94F6000C94F70077
:100030000C94F6000C94F6000C94F6000C94F60068
:100040000C94F6000C94F6000C94F6000C94F60058
:100050000C94F6000C94F6000C94F6000C94F60048
:080060000C94F6000C94F6006C
:1001EC0018950F920FB60F920F900FBE0F90189597
:1001FC0054696D653A20000020436F6F6B20546981
:10020C006D653A2000002053746174653A2000003B
:10021C00204A6F79737469636B20583A5920000037
:10022C00205354535020507265737365643A200008
:10023C0000008AB1806E8AB984B1836084B98AB1B6
:10024C00837E8AB98BB18C618BB901E804BD05E062
:10025C0005BD00E007BD40E04093800046E04093C0
:10026C0089004AE14093880002E000936F00789483
:10027C004DE04093810008952FEF80E894E02150E9
:10028C0080409040E1F70895212F2F702063129544
:10029C001F7010630895212F1F7000E31A3008F0AF
:1002AC0007E3100F22952F7000E32A3008F007E3C4
:1002BC00200F0895E4EEF2E0ABE0B1E02FE22590E0
:1002CC003590239502191309E0F7020D131D2D9398
:1002DC00C895002099F708951027E80364000A00D8
:1002EC000100000040E458EC6AEF000000006A9541
:1002FC00E1F75A95C9F74A95B1F7089548E058ECDB
:10030C006AEF000000006A95E1F75A95C9F74A9523
:10031C00B1F7089543E058EC6AEF000000006A95CD
:10032C00E1F75A95C9F74A95B1F70895080141E1EB
:10033C0022183324001C111C4A9559F0221C331C22
:10034C00221A330A20F4220E331E8894F3CF089419
:10035C00F1CF089549E02218002E001C4A9541F077
:10036C00221C221A18F4220E8894F7CF0894F5CF89
:10037C00089540E04093C50047E64093C40048E12F
:10038C004093C10046E04093C20008954091C000E4
:10039C0045FFFCCF0093C60008954091C00047FF75
:1003AC00FCCF6091C6000895013029F00191003016
:1003BC0039F0ECDFFBCF0591003011F0E7DFFBCF1C
:1003CC0008950DE00E94CC010AE00E94CC01089532
:1003DC000E94D3016D3019F430E03C9308956C9376
:1003EC00062F0E94CC01683049F4AA95B04000E277
:1003FC000E94CC0108E00E94CC01EACFA39540E01A
:10040C00B41FE6CF089580E480937C0087E8809346
:10041C007A000895ECE7F0E090818770987F892B43
:10042C008083EAE7F0E0808180648083808186FDB0
:10043C000C941C0280917800909179000895ECE75F
:10044C00F0E0B081A770B87FAB2BA083EAE7F0E0B7
:10045C00A081A064A083A081A6FD0C941C02A09195
:10046C007800B0917900089550E05093B90058E4A9
:10047C005093B80054E05093BC00089544EA409364
:10048C00BC00ECEBF0E040814423ECF77093BB0034
:10049C0084E88093BC00ECEBF0E080818823ECF7DF
:1004AC004091B900487B81E0483109F080E0089523
:1004BC000E944402089584E98093BC00089554E896
:1004CC005093BC005091BC0057FFFCCFB091BB00C7
:1004DC00089584EC8093BC00ECEBF0E080818823E1
:1004EC00ECF78091BB00089584E88093BC00ECEBA2
:1004FC00F0E080818823ECF78091BB000895809315
:10050C00BB0084E88093BC00CCEBD0E088818823CE
:10051C00ECF74091B90081E0463209F480E008958F
:10052C000E945E02892F0E948502862F0E948502FE
:10053C000E9461020895672F0E945E02892F0E941B
:10054C00850271E0760F0E945E020E947A02682F8B
:10055C000E946102862F08950E945E02892F0E94DC
:10056C008502209739F0F80181918F010E94850254
:10057C002197C9F70E946102089570ED0E945E02F6
:10058C0070ED97E060E00E949602089570ED0E9475
:10059C00A102089570ED97E060E00E94960270ED64
:1005AC0092E061E10E94960270ED91E069E50E9493
:1005BC00960270ED90E065E50E949602089570EE4B
:1005CC000E945E0281E20E9485020E9461020E94EA
:1005DC005E0281E80E9485020E9461020E945E0216
:1005EC0085EE0E9485020E94610200E210E00E94EA
:1005FC000C0300E211E00E940C0300E212E00E94E6
:10060C000C0300E213E00E940C030895EAE4F6E008
:10061C000052000FE00F00E0F01F2591349170EEB6
:10062C000E945E02812F880F0E948502822F0E94F9
:10063C008502832F0E9485020E94610208950000AA
:10064C0006002002CE12ED12240C5D2300040024BF
:10065C000009C03FC0120008C0000000000C3F00A1
:10066C000600DB00CF00E600ED00FD000700FF00F8
:10067C00EF000012000A0024C80000098310BB021E
:10068C00F7008F1239000F12F9007100BD00F6004F
:10069C0000121E0070243800360536213F00F3008E
:1006AC003F20F320ED0001123E00300C3628002DC7
:1006BC000015090C390000210F00030C0800000183
:1006CC0058107820D8008E08580871008E047010CD
:1006DC0000100E0000363000D4105010DC007001F9
:1006EC0086045000882078001C0004201428C028A0
:1006FC000C2048084909001289242005FF3F08E016
:10070C000EBF0FEF0DBFC0E0C0930201C0930301F9
:10071C00D0E0D09304010E941F010E94BF010E94EF
:10072C0009020E943A020E94C3020E94E5020C9444
:10073C00F8030E9496044C9B0C94DF03D0E0D093FA
:10074C0004014B9B0C94BC03289884E0809300011B
:10075C0000E007BDC0910301C13041F05F9A5D9A82
:10076C000E9484015D98C1E0C09303014B990C94E5
:10077C009F03C0E0C0930301809100015F984A99E8
:10078C0008C0C0910201C030A1F6833081F08430E2
:10079C00E1F14A99C0E0C09302010E9407058091E3
:1007AC000001833031F2913021F26BC0C2CF3DC0D9
:1007BC00F0CF81E08093000100E007BD28984B9BAF
:1007CC005F9880E08093090180930801D091040127
:1007DC00D03009F005C0D1E0D09304010E94C204CE
:1007EC000C949F0380E080930001289800E007BDE3
:1007FC000E94D00280E080930A01809309018093CB
:10080C00080128985F980C949F03C13089F283E00B
:10081C0080930001289A5F9803E207BDC1E0C09362
:10082C0002010E94C2040C94DE03C13009F284E080
:10083C008093000100E007BD28985F9A5D9A0E94A2
:10084C0084015D98C1E0C09302010C94DE032898EA
:10085C005F9800E007BD5D9A0E9484015D980E943C
:10086C0084015D9A0E9484015D980E9484015D9AC6
:10087C000E9484015D980E9484010E9484010C9462
:10088C00DF0382E08093000128985F98A091080113
:10089C00B091090160910501709106016233D8F0A5
:1008AC00683C30F4723390F0783C48F40C947C043F
:1008BC00AB3018F400C0B030E1F01A9717C0AD336C
:1008CC0018F400C0B030A9F0DC9710C0DC96BE3034
:1008DC0048F40CC0D6CFBE3010F0AF3018F41A96D6
:1008EC00BE3020F0AF3030F0AFE0BEE0BF30D0F71C
:1008FC0001C0A1E0A0930801B09309010E94C204B9
:10090C000E9490015D980E9484010E9407055091FD
:10091C0007015030F9F284E0809300010C949F039E
:10092C000E94420160910A016A3001F560E0609317
:10093C000A01709100017330B9F4A0910801B091D3
:10094C000901A13019F0A395119749F41197A093BF
:10095C000801B09309010E94C2040C942D04119754
:10096C00A0930801B09309010E94C20460910A018E
:10097C00639560930A0108950E94E701ECEFF1E0A2
:10098C0001E00E94DA010E942E05E4E0F2E001E0B1
:10099C000E94DA010E947F05E2E1F2E001E00E9490
:1009AC00DA01109100010E945101012F0E94CC012B
:1009BC00ECE1F2E001E00E94DA01109105010E94E5
:1009CC005101012F0E94CC01022F0E94CC010AE39D
:1009DC000E94CC01109106010E945101012F0E942E
:1009EC00CC01022F0E94CC01ECE2F2E001E00E946B
:1009FC00DA01109102010E945101012F0E94CC01D9
:100A0C00089580E00E9410029295990F990F869597
:100A1C008695892B8093060181E00E9410029295A5
:100A2C00990F990F86958695892B8093050190E0F7
:100A3C0060910501623348F0683C38F4709106010E
:100A4C00723318F0783C08F491E090930701089504
:100A5C0092E00E94CC02182F0E944A01012F0E94A2
:100A6C00CC01022F0E94CC010AE30E94CC0191E040
:100A7C000E94CC02182F0E944A01012F0E94CC0127
:100A8C00022F0E94CC010AE30E94CC0190E00E944C
:100A9C00CC02182F0E944A01012F0E94CC01022F78
:100AAC000E94CC0180910001833011F1843001F15E
:100ABC008230F1F092E00E94CC02182F0E944A0181
:100ACC00012FF22E10E00E940C030F2D11E00E945A
:100ADC000C0391E00E94CC02182F0E944A01012FB6
:100AEC00F22E12E00E940C030F2D13E00E940C0357
:100AFC00089500910801109109010E94600140E0E5
:100B0C00409310014093110140931201EBE0F1E08E
:100B1C0000E00E94DA0180910001803059F28130AE
:100B2C0049F2843031F100910801109109012CE354
:100B3C0030E00E949C01402C522C042D2AE00E9493
:100B4C00B00100E3000D10E00E940C0300E3020D65
:100B5C0011E00E940C03052D2AE00E94B00100E375
:100B6C00000D12E00E940C0300E3020D13E00E9442
:040B7C000C030895C9
:00000001FF
